{
  "contractName": "ThreeNFT",
  "abi": [
    {
      "inputs": [],
      "stateMutability": "nonpayable",
      "type": "constructor"
    },
    {
      "anonymous": false,
      "inputs": [
        {
          "indexed": true,
          "internalType": "address",
          "name": "owner",
          "type": "address"
        },
        {
          "indexed": true,
          "internalType": "address",
          "name": "approved",
          "type": "address"
        },
        {
          "indexed": true,
          "internalType": "uint256",
          "name": "tokenId",
          "type": "uint256"
        }
      ],
      "name": "Approval",
      "type": "event"
    },
    {
      "anonymous": false,
      "inputs": [
        {
          "indexed": true,
          "internalType": "address",
          "name": "owner",
          "type": "address"
        },
        {
          "indexed": true,
          "internalType": "address",
          "name": "operator",
          "type": "address"
        },
        {
          "indexed": false,
          "internalType": "bool",
          "name": "approved",
          "type": "bool"
        }
      ],
      "name": "ApprovalForAll",
      "type": "event"
    },
    {
      "anonymous": false,
      "inputs": [
        {
          "indexed": true,
          "internalType": "address",
          "name": "previousOwner",
          "type": "address"
        },
        {
          "indexed": true,
          "internalType": "address",
          "name": "newOwner",
          "type": "address"
        }
      ],
      "name": "OwnershipTransferred",
      "type": "event"
    },
    {
      "anonymous": false,
      "inputs": [
        {
          "indexed": true,
          "internalType": "address",
          "name": "from",
          "type": "address"
        },
        {
          "indexed": true,
          "internalType": "address",
          "name": "to",
          "type": "address"
        },
        {
          "indexed": true,
          "internalType": "uint256",
          "name": "tokenId",
          "type": "uint256"
        }
      ],
      "name": "Transfer",
      "type": "event"
    },
    {
      "inputs": [
        {
          "internalType": "address",
          "name": "to",
          "type": "address"
        },
        {
          "internalType": "uint256",
          "name": "tokenId",
          "type": "uint256"
        }
      ],
      "name": "approve",
      "outputs": [],
      "stateMutability": "nonpayable",
      "type": "function"
    },
    {
      "inputs": [
        {
          "internalType": "address",
          "name": "owner",
          "type": "address"
        }
      ],
      "name": "balanceOf",
      "outputs": [
        {
          "internalType": "uint256",
          "name": "",
          "type": "uint256"
        }
      ],
      "stateMutability": "view",
      "type": "function",
      "constant": true
    },
    {
      "inputs": [
        {
          "internalType": "uint256",
          "name": "tokenId",
          "type": "uint256"
        }
      ],
      "name": "getApproved",
      "outputs": [
        {
          "internalType": "address",
          "name": "",
          "type": "address"
        }
      ],
      "stateMutability": "view",
      "type": "function",
      "constant": true
    },
    {
      "inputs": [
        {
          "internalType": "address",
          "name": "owner",
          "type": "address"
        },
        {
          "internalType": "address",
          "name": "operator",
          "type": "address"
        }
      ],
      "name": "isApprovedForAll",
      "outputs": [
        {
          "internalType": "bool",
          "name": "",
          "type": "bool"
        }
      ],
      "stateMutability": "view",
      "type": "function",
      "constant": true
    },
    {
      "inputs": [],
      "name": "name",
      "outputs": [
        {
          "internalType": "string",
          "name": "",
          "type": "string"
        }
      ],
      "stateMutability": "view",
      "type": "function",
      "constant": true
    },
    {
      "inputs": [],
      "name": "owner",
      "outputs": [
        {
          "internalType": "address",
          "name": "",
          "type": "address"
        }
      ],
      "stateMutability": "view",
      "type": "function",
      "constant": true
    },
    {
      "inputs": [
        {
          "internalType": "uint256",
          "name": "tokenId",
          "type": "uint256"
        }
      ],
      "name": "ownerOf",
      "outputs": [
        {
          "internalType": "address",
          "name": "",
          "type": "address"
        }
      ],
      "stateMutability": "view",
      "type": "function",
      "constant": true
    },
    {
      "inputs": [],
      "name": "renounceOwnership",
      "outputs": [],
      "stateMutability": "nonpayable",
      "type": "function"
    },
    {
      "inputs": [
        {
          "internalType": "address",
          "name": "from",
          "type": "address"
        },
        {
          "internalType": "address",
          "name": "to",
          "type": "address"
        },
        {
          "internalType": "uint256",
          "name": "tokenId",
          "type": "uint256"
        }
      ],
      "name": "safeTransferFrom",
      "outputs": [],
      "stateMutability": "nonpayable",
      "type": "function"
    },
    {
      "inputs": [
        {
          "internalType": "address",
          "name": "from",
          "type": "address"
        },
        {
          "internalType": "address",
          "name": "to",
          "type": "address"
        },
        {
          "internalType": "uint256",
          "name": "tokenId",
          "type": "uint256"
        },
        {
          "internalType": "bytes",
          "name": "data",
          "type": "bytes"
        }
      ],
      "name": "safeTransferFrom",
      "outputs": [],
      "stateMutability": "nonpayable",
      "type": "function"
    },
    {
      "inputs": [
        {
          "internalType": "address",
          "name": "operator",
          "type": "address"
        },
        {
          "internalType": "bool",
          "name": "approved",
          "type": "bool"
        }
      ],
      "name": "setApprovalForAll",
      "outputs": [],
      "stateMutability": "nonpayable",
      "type": "function"
    },
    {
      "inputs": [
        {
          "internalType": "bytes4",
          "name": "interfaceId",
          "type": "bytes4"
        }
      ],
      "name": "supportsInterface",
      "outputs": [
        {
          "internalType": "bool",
          "name": "",
          "type": "bool"
        }
      ],
      "stateMutability": "view",
      "type": "function",
      "constant": true
    },
    {
      "inputs": [],
      "name": "symbol",
      "outputs": [
        {
          "internalType": "string",
          "name": "",
          "type": "string"
        }
      ],
      "stateMutability": "view",
      "type": "function",
      "constant": true
    },
    {
      "inputs": [
        {
          "internalType": "uint256",
          "name": "tokenId",
          "type": "uint256"
        }
      ],
      "name": "tokenURI",
      "outputs": [
        {
          "internalType": "string",
          "name": "",
          "type": "string"
        }
      ],
      "stateMutability": "view",
      "type": "function",
      "constant": true
    },
    {
      "inputs": [
        {
          "internalType": "address",
          "name": "from",
          "type": "address"
        },
        {
          "internalType": "address",
          "name": "to",
          "type": "address"
        },
        {
          "internalType": "uint256",
          "name": "tokenId",
          "type": "uint256"
        }
      ],
      "name": "transferFrom",
      "outputs": [],
      "stateMutability": "nonpayable",
      "type": "function"
    },
    {
      "inputs": [
        {
          "internalType": "address",
          "name": "newOwner",
          "type": "address"
        }
      ],
      "name": "transferOwnership",
      "outputs": [],
      "stateMutability": "nonpayable",
      "type": "function"
    },
    {
      "inputs": [
        {
          "internalType": "address",
          "name": "recipient",
          "type": "address"
        },
        {
          "internalType": "string",
          "name": "tokenURI",
          "type": "string"
        }
      ],
      "name": "mintNFT",
      "outputs": [
        {
          "internalType": "uint256",
          "name": "",
          "type": "uint256"
        }
      ],
      "stateMutability": "nonpayable",
      "type": "function"
    },
    {
      "inputs": [
        {
          "internalType": "address",
          "name": "tokenAddress",
          "type": "address"
        }
      ],
      "name": "setToken",
      "outputs": [
        {
          "internalType": "bool",
          "name": "",
          "type": "bool"
        }
      ],
      "stateMutability": "nonpayable",
      "type": "function"
    },
    {
      "inputs": [],
      "name": "tokenAdress",
      "outputs": [
        {
          "internalType": "contract IERC20",
          "name": "",
          "type": "address"
        }
      ],
      "stateMutability": "view",
      "type": "function",
      "constant": true
    }
  ],
  "bytecode": "0x60806040523480156200001157600080fd5b506040518060400160405280600981526020017f54687265654e46547300000000000000000000000000000000000000000000008152506040518060400160405280600581526020017f53414d4654000000000000000000000000000000000000000000000000000000815250816000908051906020019062000096929190620001ae565b508060019080519060200190620000af929190620001ae565b505050620000d2620000c6620000e060201b60201c565b620000e860201b60201c565b6014600a81905550620002c3565b600033905090565b6000600760009054906101000a900473ffffffffffffffffffffffffffffffffffffffff16905081600760006101000a81548173ffffffffffffffffffffffffffffffffffffffff021916908373ffffffffffffffffffffffffffffffffffffffff1602179055508173ffffffffffffffffffffffffffffffffffffffff168173ffffffffffffffffffffffffffffffffffffffff167f8be0079c531659141344cd1fd0a4f28419497f9722a3daafe3b4186f6b6457e060405160405180910390a35050565b828054620001bc906200028d565b90600052602060002090601f016020900481019282620001e057600085556200022c565b82601f10620001fb57805160ff19168380011785556200022c565b828001600101855582156200022c579182015b828111156200022b5782518255916020019190600101906200020e565b5b5090506200023b91906200023f565b5090565b5b808211156200025a57600081600090555060010162000240565b5090565b7f4e487b7100000000000000000000000000000000000000000000000000000000600052602260045260246000fd5b60006002820490506001821680620002a657607f821691505b60208210811415620002bd57620002bc6200025e565b5b50919050565b612fa180620002d36000396000f3fe608060405234801561001057600080fd5b50600436106101215760003560e01c8063715018a6116100ad578063b88d4fde11610071578063b88d4fde14610308578063c87b56dd14610324578063e985e9c514610354578063eacabe1414610384578063f2fde38b146103b457610121565b8063715018a6146102885780638da5cb5b1461029257806395d89b41146102b057806397c9c5a6146102ce578063a22cb465146102ec57610121565b8063144fa6d7116100f4578063144fa6d7146101c057806323b872dd146101f057806342842e0e1461020c5780636352211e1461022857806370a082311461025857610121565b806301ffc9a71461012657806306fdde0314610156578063081812fc14610174578063095ea7b3146101a4575b600080fd5b610140600480360381019061013b9190611d3e565b6103d0565b60405161014d9190611d86565b60405180910390f35b61015e6104b2565b60405161016b9190611e3a565b60405180910390f35b61018e60048036038101906101899190611e92565b610544565b60405161019b9190611f00565b60405180910390f35b6101be60048036038101906101b99190611f47565b61058a565b005b6101da60048036038101906101d59190611f87565b6106a2565b6040516101e79190611d86565b60405180910390f35b61020a60048036038101906102059190611fb4565b610730565b005b61022660048036038101906102219190611fb4565b610790565b005b610242600480360381019061023d9190611e92565b6107b0565b60405161024f9190611f00565b60405180910390f35b610272600480360381019061026d9190611f87565b610862565b60405161027f9190612016565b60405180910390f35b61029061091a565b005b61029a61092e565b6040516102a79190611f00565b60405180910390f35b6102b8610958565b6040516102c59190611e3a565b60405180910390f35b6102d66109ea565b6040516102e39190612090565b60405180910390f35b610306600480360381019061030191906120d7565b610a14565b005b610322600480360381019061031d919061224c565b610a2a565b005b61033e60048036038101906103399190611e92565b610a8c565b60405161034b9190611e3a565b60405180910390f35b61036e600480360381019061036991906122cf565b610b9f565b60405161037b9190611d86565b60405180910390f35b61039e600480360381019061039991906123b0565b610c33565b6040516103ab9190612016565b60405180910390f35b6103ce60048036038101906103c99190611f87565b610db9565b005b60007f80ac58cd000000000000000000000000000000000000000000000000000000007bffffffffffffffffffffffffffffffffffffffffffffffffffffffff1916827bffffffffffffffffffffffffffffffffffffffffffffffffffffffff1916148061049b57507f5b5e139f000000000000000000000000000000000000000000000000000000007bffffffffffffffffffffffffffffffffffffffffffffffffffffffff1916827bffffffffffffffffffffffffffffffffffffffffffffffffffffffff1916145b806104ab57506104aa82610e3d565b5b9050919050565b6060600080546104c19061243b565b80601f01602080910402602001604051908101604052809291908181526020018280546104ed9061243b565b801561053a5780601f1061050f5761010080835404028352916020019161053a565b820191906000526020600020905b81548152906001019060200180831161051d57829003601f168201915b5050505050905090565b600061054f82610ea7565b6004600083815260200190815260200160002060009054906101000a900473ffffffffffffffffffffffffffffffffffffffff169050919050565b6000610595826107b0565b90508073ffffffffffffffffffffffffffffffffffffffff168373ffffffffffffffffffffffffffffffffffffffff161415610606576040517f08c379a00000000000000000000000000000000000000000000000000000000081526004016105fd906124df565b60405180910390fd5b8073ffffffffffffffffffffffffffffffffffffffff16610625610ef2565b73ffffffffffffffffffffffffffffffffffffffff16148061065457506106538161064e610ef2565b610b9f565b5b610693576040517f08c379a000000000000000000000000000000000000000000000000000000000815260040161068a90612571565b60405180910390fd5b61069d8383610efa565b505050565b60006106ac610fb3565b600073ffffffffffffffffffffffffffffffffffffffff168273ffffffffffffffffffffffffffffffffffffffff1614156106e657600080fd5b81600960006101000a81548173ffffffffffffffffffffffffffffffffffffffff021916908373ffffffffffffffffffffffffffffffffffffffff16021790555060019050919050565b61074161073b610ef2565b82611031565b610780576040517f08c379a000000000000000000000000000000000000000000000000000000000815260040161077790612603565b60405180910390fd5b61078b8383836110c6565b505050565b6107ab83838360405180602001604052806000815250610a2a565b505050565b6000806002600084815260200190815260200160002060009054906101000a900473ffffffffffffffffffffffffffffffffffffffff169050600073ffffffffffffffffffffffffffffffffffffffff168173ffffffffffffffffffffffffffffffffffffffff161415610859576040517f08c379a00000000000000000000000000000000000000000000000000000000081526004016108509061266f565b60405180910390fd5b80915050919050565b60008073ffffffffffffffffffffffffffffffffffffffff168273ffffffffffffffffffffffffffffffffffffffff1614156108d3576040517f08c379a00000000000000000000000000000000000000000000000000000000081526004016108ca90612701565b60405180910390fd5b600360008373ffffffffffffffffffffffffffffffffffffffff1673ffffffffffffffffffffffffffffffffffffffff168152602001908152602001600020549050919050565b610922610fb3565b61092c600061132d565b565b6000600760009054906101000a900473ffffffffffffffffffffffffffffffffffffffff16905090565b6060600180546109679061243b565b80601f01602080910402602001604051908101604052809291908181526020018280546109939061243b565b80156109e05780601f106109b5576101008083540402835291602001916109e0565b820191906000526020600020905b8154815290600101906020018083116109c357829003601f168201915b5050505050905090565b6000600960009054906101000a900473ffffffffffffffffffffffffffffffffffffffff16905090565b610a26610a1f610ef2565b83836113f3565b5050565b610a3b610a35610ef2565b83611031565b610a7a576040517f08c379a0000000000000000000000000000000000000000000000000000000008152600401610a7190612603565b60405180910390fd5b610a8684848484611560565b50505050565b6060610a9782610ea7565b6000600660008481526020019081526020016000208054610ab79061243b565b80601f0160208091040260200160405190810160405280929190818152602001828054610ae39061243b565b8015610b305780601f10610b0557610100808354040283529160200191610b30565b820191906000526020600020905b815481529060010190602001808311610b1357829003601f168201915b505050505090506000610b416115bc565b9050600081511415610b57578192505050610b9a565b600082511115610b8c578082604051602001610b7492919061275d565b60405160208183030381529060405292505050610b9a565b610b95846115d3565b925050505b919050565b6000600560008473ffffffffffffffffffffffffffffffffffffffff1673ffffffffffffffffffffffffffffffffffffffff16815260200190815260200160002060008373ffffffffffffffffffffffffffffffffffffffff1673ffffffffffffffffffffffffffffffffffffffff16815260200190815260200160002060009054906101000a900460ff16905092915050565b6000600a54600960009054906101000a900473ffffffffffffffffffffffffffffffffffffffff1673ffffffffffffffffffffffffffffffffffffffff166370a08231856040518263ffffffff1660e01b8152600401610c939190611f00565b602060405180830381865afa158015610cb0573d6000803e3d6000fd5b505050506040513d601f19601f82011682018060405250810190610cd49190612796565b11610cde57600080fd5b600960009054906101000a900473ffffffffffffffffffffffffffffffffffffffff1673ffffffffffffffffffffffffffffffffffffffff166323b872dd8433600a546040518463ffffffff1660e01b8152600401610d3f939291906127c3565b6020604051808303816000875af1158015610d5e573d6000803e3d6000fd5b505050506040513d601f19601f82011682018060405250810190610d82919061280f565b50610d8d600861163b565b6000610d996008611651565b9050610da5848261165f565b610daf8184611839565b8091505092915050565b610dc1610fb3565b600073ffffffffffffffffffffffffffffffffffffffff168173ffffffffffffffffffffffffffffffffffffffff161415610e31576040517f08c379a0000000000000000000000000000000000000000000000000000000008152600401610e28906128ae565b60405180910390fd5b610e3a8161132d565b50565b60007f01ffc9a7000000000000000000000000000000000000000000000000000000007bffffffffffffffffffffffffffffffffffffffffffffffffffffffff1916827bffffffffffffffffffffffffffffffffffffffffffffffffffffffff1916149050919050565b610eb0816118ad565b610eef576040517f08c379a0000000000000000000000000000000000000000000000000000000008152600401610ee69061266f565b60405180910390fd5b50565b600033905090565b816004600083815260200190815260200160002060006101000a81548173ffffffffffffffffffffffffffffffffffffffff021916908373ffffffffffffffffffffffffffffffffffffffff160217905550808273ffffffffffffffffffffffffffffffffffffffff16610f6d836107b0565b73ffffffffffffffffffffffffffffffffffffffff167f8c5be1e5ebec7d5bd14f71427d1e84f3dd0314c0f7b2291e5b200ac8c7c3b92560405160405180910390a45050565b610fbb610ef2565b73ffffffffffffffffffffffffffffffffffffffff16610fd961092e565b73ffffffffffffffffffffffffffffffffffffffff161461102f576040517f08c379a00000000000000000000000000000000000000000000000000000000081526004016110269061291a565b60405180910390fd5b565b60008061103d836107b0565b90508073ffffffffffffffffffffffffffffffffffffffff168473ffffffffffffffffffffffffffffffffffffffff16148061107f575061107e8185610b9f565b5b806110bd57508373ffffffffffffffffffffffffffffffffffffffff166110a584610544565b73ffffffffffffffffffffffffffffffffffffffff16145b91505092915050565b8273ffffffffffffffffffffffffffffffffffffffff166110e6826107b0565b73ffffffffffffffffffffffffffffffffffffffff161461113c576040517f08c379a0000000000000000000000000000000000000000000000000000000008152600401611133906129ac565b60405180910390fd5b600073ffffffffffffffffffffffffffffffffffffffff168273ffffffffffffffffffffffffffffffffffffffff1614156111ac576040517f08c379a00000000000000000000000000000000000000000000000000000000081526004016111a390612a3e565b60405180910390fd5b6111b7838383611919565b6111c2600082610efa565b6001600360008573ffffffffffffffffffffffffffffffffffffffff1673ffffffffffffffffffffffffffffffffffffffff16815260200190815260200160002060008282546112129190612a8d565b925050819055506001600360008473ffffffffffffffffffffffffffffffffffffffff1673ffffffffffffffffffffffffffffffffffffffff16815260200190815260200160002060008282546112699190612ac1565b92505081905550816002600083815260200190815260200160002060006101000a81548173ffffffffffffffffffffffffffffffffffffffff021916908373ffffffffffffffffffffffffffffffffffffffff160217905550808273ffffffffffffffffffffffffffffffffffffffff168473ffffffffffffffffffffffffffffffffffffffff167fddf252ad1be2c89b69c2b068fc378daa952ba7f163c4a11628f55a4df523b3ef60405160405180910390a461132883838361191e565b505050565b6000600760009054906101000a900473ffffffffffffffffffffffffffffffffffffffff16905081600760006101000a81548173ffffffffffffffffffffffffffffffffffffffff021916908373ffffffffffffffffffffffffffffffffffffffff1602179055508173ffffffffffffffffffffffffffffffffffffffff168173ffffffffffffffffffffffffffffffffffffffff167f8be0079c531659141344cd1fd0a4f28419497f9722a3daafe3b4186f6b6457e060405160405180910390a35050565b8173ffffffffffffffffffffffffffffffffffffffff168373ffffffffffffffffffffffffffffffffffffffff161415611462576040517f08c379a000000000000000000000000000000000000000000000000000000000815260040161145990612b63565b60405180910390fd5b80600560008573ffffffffffffffffffffffffffffffffffffffff1673ffffffffffffffffffffffffffffffffffffffff16815260200190815260200160002060008473ffffffffffffffffffffffffffffffffffffffff1673ffffffffffffffffffffffffffffffffffffffff16815260200190815260200160002060006101000a81548160ff0219169083151502179055508173ffffffffffffffffffffffffffffffffffffffff168373ffffffffffffffffffffffffffffffffffffffff167f17307eab39ab6107e8899845ad3d59bd9653f200f220920489ca2b5937696c31836040516115539190611d86565b60405180910390a3505050565b61156b8484846110c6565b61157784848484611923565b6115b6576040517f08c379a00000000000000000000000000000000000000000000000000000000081526004016115ad90612bf5565b60405180910390fd5b50505050565b606060405180602001604052806000815250905090565b60606115de82610ea7565b60006115e86115bc565b905060008151116116085760405180602001604052806000815250611633565b8061161284611aab565b60405160200161162392919061275d565b6040516020818303038152906040525b915050919050565b6001816000016000828254019250508190555050565b600081600001549050919050565b600073ffffffffffffffffffffffffffffffffffffffff168273ffffffffffffffffffffffffffffffffffffffff1614156116cf576040517f08c379a00000000000000000000000000000000000000000000000000000000081526004016116c690612c61565b60405180910390fd5b6116d8816118ad565b15611718576040517f08c379a000000000000000000000000000000000000000000000000000000000815260040161170f90612ccd565b60405180910390fd5b61172460008383611919565b6001600360008473ffffffffffffffffffffffffffffffffffffffff1673ffffffffffffffffffffffffffffffffffffffff16815260200190815260200160002060008282546117749190612ac1565b92505081905550816002600083815260200190815260200160002060006101000a81548173ffffffffffffffffffffffffffffffffffffffff021916908373ffffffffffffffffffffffffffffffffffffffff160217905550808273ffffffffffffffffffffffffffffffffffffffff16600073ffffffffffffffffffffffffffffffffffffffff167fddf252ad1be2c89b69c2b068fc378daa952ba7f163c4a11628f55a4df523b3ef60405160405180910390a46118356000838361191e565b5050565b611842826118ad565b611881576040517f08c379a000000000000000000000000000000000000000000000000000000000815260040161187890612d5f565b60405180910390fd5b806006600084815260200190815260200160002090805190602001906118a8929190611c2f565b505050565b60008073ffffffffffffffffffffffffffffffffffffffff166002600084815260200190815260200160002060009054906101000a900473ffffffffffffffffffffffffffffffffffffffff1673ffffffffffffffffffffffffffffffffffffffff1614159050919050565b505050565b505050565b60006119448473ffffffffffffffffffffffffffffffffffffffff16611c0c565b15611a9e578373ffffffffffffffffffffffffffffffffffffffff1663150b7a0261196d610ef2565b8786866040518563ffffffff1660e01b815260040161198f9493929190612dd4565b6020604051808303816000875af19250505080156119cb57506040513d601f19601f820116820180604052508101906119c89190612e35565b60015b611a4e573d80600081146119fb576040519150601f19603f3d011682016040523d82523d6000602084013e611a00565b606091505b50600081511415611a46576040517f08c379a0000000000000000000000000000000000000000000000000000000008152600401611a3d90612bf5565b60405180910390fd5b805181602001fd5b63150b7a0260e01b7bffffffffffffffffffffffffffffffffffffffffffffffffffffffff1916817bffffffffffffffffffffffffffffffffffffffffffffffffffffffff191614915050611aa3565b600190505b949350505050565b60606000821415611af3576040518060400160405280600181526020017f30000000000000000000000000000000000000000000000000000000000000008152509050611c07565b600082905060005b60008214611b25578080611b0e90612e62565b915050600a82611b1e9190612eda565b9150611afb565b60008167ffffffffffffffff811115611b4157611b40612121565b5b6040519080825280601f01601f191660200182016040528015611b735781602001600182028036833780820191505090505b5090505b60008514611c0057600182611b8c9190612a8d565b9150600a85611b9b9190612f0b565b6030611ba79190612ac1565b60f81b818381518110611bbd57611bbc612f3c565b5b60200101907effffffffffffffffffffffffffffffffffffffffffffffffffffffffffffff1916908160001a905350600a85611bf99190612eda565b9450611b77565b8093505050505b919050565b6000808273ffffffffffffffffffffffffffffffffffffffff163b119050919050565b828054611c3b9061243b565b90600052602060002090601f016020900481019282611c5d5760008555611ca4565b82601f10611c7657805160ff1916838001178555611ca4565b82800160010185558215611ca4579182015b82811115611ca3578251825591602001919060010190611c88565b5b509050611cb19190611cb5565b5090565b5b80821115611cce576000816000905550600101611cb6565b5090565b6000604051905090565b600080fd5b600080fd5b60007fffffffff0000000000000000000000000000000000000000000000000000000082169050919050565b611d1b81611ce6565b8114611d2657600080fd5b50565b600081359050611d3881611d12565b92915050565b600060208284031215611d5457611d53611cdc565b5b6000611d6284828501611d29565b91505092915050565b60008115159050919050565b611d8081611d6b565b82525050565b6000602082019050611d9b6000830184611d77565b92915050565b600081519050919050565b600082825260208201905092915050565b60005b83811015611ddb578082015181840152602081019050611dc0565b83811115611dea576000848401525b50505050565b6000601f19601f8301169050919050565b6000611e0c82611da1565b611e168185611dac565b9350611e26818560208601611dbd565b611e2f81611df0565b840191505092915050565b60006020820190508181036000830152611e548184611e01565b905092915050565b6000819050919050565b611e6f81611e5c565b8114611e7a57600080fd5b50565b600081359050611e8c81611e66565b92915050565b600060208284031215611ea857611ea7611cdc565b5b6000611eb684828501611e7d565b91505092915050565b600073ffffffffffffffffffffffffffffffffffffffff82169050919050565b6000611eea82611ebf565b9050919050565b611efa81611edf565b82525050565b6000602082019050611f156000830184611ef1565b92915050565b611f2481611edf565b8114611f2f57600080fd5b50565b600081359050611f4181611f1b565b92915050565b60008060408385031215611f5e57611f5d611cdc565b5b6000611f6c85828601611f32565b9250506020611f7d85828601611e7d565b9150509250929050565b600060208284031215611f9d57611f9c611cdc565b5b6000611fab84828501611f32565b91505092915050565b600080600060608486031215611fcd57611fcc611cdc565b5b6000611fdb86828701611f32565b9350506020611fec86828701611f32565b9250506040611ffd86828701611e7d565b9150509250925092565b61201081611e5c565b82525050565b600060208201905061202b6000830184612007565b92915050565b6000819050919050565b600061205661205161204c84611ebf565b612031565b611ebf565b9050919050565b60006120688261203b565b9050919050565b600061207a8261205d565b9050919050565b61208a8161206f565b82525050565b60006020820190506120a56000830184612081565b92915050565b6120b481611d6b565b81146120bf57600080fd5b50565b6000813590506120d1816120ab565b92915050565b600080604083850312156120ee576120ed611cdc565b5b60006120fc85828601611f32565b925050602061210d858286016120c2565b9150509250929050565b600080fd5b600080fd5b7f4e487b7100000000000000000000000000000000000000000000000000000000600052604160045260246000fd5b61215982611df0565b810181811067ffffffffffffffff8211171561217857612177612121565b5b80604052505050565b600061218b611cd2565b90506121978282612150565b919050565b600067ffffffffffffffff8211156121b7576121b6612121565b5b6121c082611df0565b9050602081019050919050565b82818337600083830152505050565b60006121ef6121ea8461219c565b612181565b90508281526020810184848401111561220b5761220a61211c565b5b6122168482856121cd565b509392505050565b600082601f83011261223357612232612117565b5b81356122438482602086016121dc565b91505092915050565b6000806000806080858703121561226657612265611cdc565b5b600061227487828801611f32565b945050602061228587828801611f32565b935050604061229687828801611e7d565b925050606085013567ffffffffffffffff8111156122b7576122b6611ce1565b5b6122c38782880161221e565b91505092959194509250565b600080604083850312156122e6576122e5611cdc565b5b60006122f485828601611f32565b925050602061230585828601611f32565b9150509250929050565b600067ffffffffffffffff82111561232a57612329612121565b5b61233382611df0565b9050602081019050919050565b600061235361234e8461230f565b612181565b90508281526020810184848401111561236f5761236e61211c565b5b61237a8482856121cd565b509392505050565b600082601f83011261239757612396612117565b5b81356123a7848260208601612340565b91505092915050565b600080604083850312156123c7576123c6611cdc565b5b60006123d585828601611f32565b925050602083013567ffffffffffffffff8111156123f6576123f5611ce1565b5b61240285828601612382565b9150509250929050565b7f4e487b7100000000000000000000000000000000000000000000000000000000600052602260045260246000fd5b6000600282049050600182168061245357607f821691505b602082108114156124675761246661240c565b5b50919050565b7f4552433732313a20617070726f76616c20746f2063757272656e74206f776e6560008201527f7200000000000000000000000000000000000000000000000000000000000000602082015250565b60006124c9602183611dac565b91506124d48261246d565b604082019050919050565b600060208201905081810360008301526124f8816124bc565b9050919050565b7f4552433732313a20617070726f76652063616c6c6572206973206e6f7420746f60008201527f6b656e206f776e6572206e6f7220617070726f76656420666f7220616c6c0000602082015250565b600061255b603e83611dac565b9150612566826124ff565b604082019050919050565b6000602082019050818103600083015261258a8161254e565b9050919050565b7f4552433732313a2063616c6c6572206973206e6f7420746f6b656e206f776e6560008201527f72206e6f7220617070726f766564000000000000000000000000000000000000602082015250565b60006125ed602e83611dac565b91506125f882612591565b604082019050919050565b6000602082019050818103600083015261261c816125e0565b9050919050565b7f4552433732313a20696e76616c696420746f6b656e2049440000000000000000600082015250565b6000612659601883611dac565b915061266482612623565b602082019050919050565b600060208201905081810360008301526126888161264c565b9050919050565b7f4552433732313a2061646472657373207a65726f206973206e6f74206120766160008201527f6c6964206f776e65720000000000000000000000000000000000000000000000602082015250565b60006126eb602983611dac565b91506126f68261268f565b604082019050919050565b6000602082019050818103600083015261271a816126de565b9050919050565b600081905092915050565b600061273782611da1565b6127418185612721565b9350612751818560208601611dbd565b80840191505092915050565b6000612769828561272c565b9150612775828461272c565b91508190509392505050565b60008151905061279081611e66565b92915050565b6000602082840312156127ac576127ab611cdc565b5b60006127ba84828501612781565b91505092915050565b60006060820190506127d86000830186611ef1565b6127e56020830185611ef1565b6127f26040830184612007565b949350505050565b600081519050612809816120ab565b92915050565b60006020828403121561282557612824611cdc565b5b6000612833848285016127fa565b91505092915050565b7f4f776e61626c653a206e6577206f776e657220697320746865207a65726f206160008201527f6464726573730000000000000000000000000000000000000000000000000000602082015250565b6000612898602683611dac565b91506128a38261283c565b604082019050919050565b600060208201905081810360008301526128c78161288b565b9050919050565b7f4f776e61626c653a2063616c6c6572206973206e6f7420746865206f776e6572600082015250565b6000612904602083611dac565b915061290f826128ce565b602082019050919050565b60006020820190508181036000830152612933816128f7565b9050919050565b7f4552433732313a207472616e736665722066726f6d20696e636f72726563742060008201527f6f776e6572000000000000000000000000000000000000000000000000000000602082015250565b6000612996602583611dac565b91506129a18261293a565b604082019050919050565b600060208201905081810360008301526129c581612989565b9050919050565b7f4552433732313a207472616e7366657220746f20746865207a65726f2061646460008201527f7265737300000000000000000000000000000000000000000000000000000000602082015250565b6000612a28602483611dac565b9150612a33826129cc565b604082019050919050565b60006020820190508181036000830152612a5781612a1b565b9050919050565b7f4e487b7100000000000000000000000000000000000000000000000000000000600052601160045260246000fd5b6000612a9882611e5c565b9150612aa383611e5c565b925082821015612ab657612ab5612a5e565b5b828203905092915050565b6000612acc82611e5c565b9150612ad783611e5c565b9250827fffffffffffffffffffffffffffffffffffffffffffffffffffffffffffffffff03821115612b0c57612b0b612a5e565b5b828201905092915050565b7f4552433732313a20617070726f766520746f2063616c6c657200000000000000600082015250565b6000612b4d601983611dac565b9150612b5882612b17565b602082019050919050565b60006020820190508181036000830152612b7c81612b40565b9050919050565b7f4552433732313a207472616e7366657220746f206e6f6e20455243373231526560008201527f63656976657220696d706c656d656e7465720000000000000000000000000000602082015250565b6000612bdf603283611dac565b9150612bea82612b83565b604082019050919050565b60006020820190508181036000830152612c0e81612bd2565b9050919050565b7f4552433732313a206d696e7420746f20746865207a65726f2061646472657373600082015250565b6000612c4b602083611dac565b9150612c5682612c15565b602082019050919050565b60006020820190508181036000830152612c7a81612c3e565b9050919050565b7f4552433732313a20746f6b656e20616c7265616479206d696e74656400000000600082015250565b6000612cb7601c83611dac565b9150612cc282612c81565b602082019050919050565b60006020820190508181036000830152612ce681612caa565b9050919050565b7f45524337323155524953746f726167653a2055524920736574206f66206e6f6e60008201527f6578697374656e7420746f6b656e000000000000000000000000000000000000602082015250565b6000612d49602e83611dac565b9150612d5482612ced565b604082019050919050565b60006020820190508181036000830152612d7881612d3c565b9050919050565b600081519050919050565b600082825260208201905092915050565b6000612da682612d7f565b612db08185612d8a565b9350612dc0818560208601611dbd565b612dc981611df0565b840191505092915050565b6000608082019050612de96000830187611ef1565b612df66020830186611ef1565b612e036040830185612007565b8181036060830152612e158184612d9b565b905095945050505050565b600081519050612e2f81611d12565b92915050565b600060208284031215612e4b57612e4a611cdc565b5b6000612e5984828501612e20565b91505092915050565b6000612e6d82611e5c565b91507fffffffffffffffffffffffffffffffffffffffffffffffffffffffffffffffff821415612ea057612e9f612a5e565b5b600182019050919050565b7f4e487b7100000000000000000000000000000000000000000000000000000000600052601260045260246000fd5b6000612ee582611e5c565b9150612ef083611e5c565b925082612f0057612eff612eab565b5b828204905092915050565b6000612f1682611e5c565b9150612f2183611e5c565b925082612f3157612f30612eab565b5b828206905092915050565b7f4e487b7100000000000000000000000000000000000000000000000000000000600052603260045260246000fdfea264697066735822122058eed81a91642d0bc896be61aaa652dc438d2e229bdf765efdc1eda3e35da12664736f6c634300080a0033",
  "immutableReferences": {},
  "source": "// SPDX-License-Identifier: MIT\r\npragma solidity >=0.8.10;\r\n\r\nimport \"@openzeppelin/contracts/token/ERC721/ERC721.sol\";\r\nimport \"@openzeppelin/contracts/utils/Counters.sol\";\r\nimport \"@openzeppelin/contracts/access/Ownable.sol\";\r\nimport \"@openzeppelin/contracts/token/ERC721/extensions/ERC721URIStorage.sol\";\r\nimport \"@openzeppelin/contracts/token/ERC20/IERC20.sol\";\r\n\r\ncontract ThreeNFT is ERC721URIStorage, Ownable {\r\n    using Counters for Counters.Counter;\r\n    Counters.Counter private _tokenIds;\r\n    IERC20 token;\r\n    uint256 nftPrice;\r\n\r\n    constructor() ERC721(\"ThreeNFTs\", \"SAMFT\") {\r\n        nftPrice = 20;\r\n    }\r\n\r\n    function mintNFT(address recipient, string memory tokenURI) public returns (uint256) {\r\n        require(token.balanceOf(recipient) > nftPrice);\r\n\r\n        token.transferFrom(recipient, msg.sender, nftPrice);\r\n        \r\n        _tokenIds.increment();\r\n        uint256 newItemId = _tokenIds.current();\r\n        _mint(recipient, newItemId);\r\n        _setTokenURI(newItemId, tokenURI);\r\n\r\n        return newItemId;\r\n    }\r\n\r\n    function setToken (address tokenAddress) public onlyOwner returns (bool) {\r\n        require(tokenAddress != address(0x0));\r\n        token = IERC20(tokenAddress);\r\n        return true;\r\n    }\r\n\r\n    function tokenAdress() public view virtual returns (IERC20) {\r\n        return token;\r\n    }\r\n\r\n}",
  "sourcePath": "D:\\\\\\2\\beb-05-second-Bear\\contract\\contracts\\ThreeNFT.sol",
  "compiler": {
    "name": "solc",
    "version": "0.8.10+commit.fc410830.Emscripten.clang"
  },
  "schemaVersion": "3.4.5",
  "updatedAt": "2022-08-25T10:02:27.059Z",
  "networkType": "ethereum",
  "devdoc": {
    "kind": "dev",
    "methods": {
      "approve(address,uint256)": {
        "details": "See {IERC721-approve}."
      },
      "balanceOf(address)": {
        "details": "See {IERC721-balanceOf}."
      },
      "getApproved(uint256)": {
        "details": "See {IERC721-getApproved}."
      },
      "isApprovedForAll(address,address)": {
        "details": "See {IERC721-isApprovedForAll}."
      },
      "name()": {
        "details": "See {IERC721Metadata-name}."
      },
      "owner()": {
        "details": "Returns the address of the current owner."
      },
      "ownerOf(uint256)": {
        "details": "See {IERC721-ownerOf}."
      },
      "renounceOwnership()": {
        "details": "Leaves the contract without owner. It will not be possible to call `onlyOwner` functions anymore. Can only be called by the current owner. NOTE: Renouncing ownership will leave the contract without an owner, thereby removing any functionality that is only available to the owner."
      },
      "safeTransferFrom(address,address,uint256)": {
        "details": "See {IERC721-safeTransferFrom}."
      },
      "safeTransferFrom(address,address,uint256,bytes)": {
        "details": "See {IERC721-safeTransferFrom}."
      },
      "setApprovalForAll(address,bool)": {
        "details": "See {IERC721-setApprovalForAll}."
      },
      "supportsInterface(bytes4)": {
        "details": "See {IERC165-supportsInterface}."
      },
      "symbol()": {
        "details": "See {IERC721Metadata-symbol}."
      },
      "tokenURI(uint256)": {
        "details": "See {IERC721Metadata-tokenURI}."
      },
      "transferFrom(address,address,uint256)": {
        "details": "See {IERC721-transferFrom}."
      },
      "transferOwnership(address)": {
        "details": "Transfers ownership of the contract to a new account (`newOwner`). Can only be called by the current owner."
      }
    },
    "version": 1
  },
  "userdoc": {
    "kind": "user",
    "methods": {},
    "version": 1
  }
}